{
  "contractName": "PrivateStorage",
  "abi": [
    {
      "inputs": [],
      "stateMutability": "nonpayable",
      "type": "constructor"
    },
    {
      "anonymous": false,
      "inputs": [
        {
          "indexed": false,
          "internalType": "uint256",
          "name": "timestamp",
          "type": "uint256"
        },
        {
          "indexed": false,
          "internalType": "string",
          "name": "output",
          "type": "string"
        }
      ],
      "name": "Broadcast",
      "type": "event"
    },
    {
      "inputs": [
        {
          "internalType": "string",
          "name": "_output",
          "type": "string"
        }
      ],
      "name": "broadcast",
      "outputs": [
        {
          "internalType": "bool",
          "name": "",
          "type": "bool"
        }
      ],
      "stateMutability": "nonpayable",
      "type": "function"
    },
    {
      "inputs": [
        {
          "internalType": "bytes32",
          "name": "_name",
          "type": "bytes32"
        }
      ],
      "name": "setNameBytes32",
      "outputs": [],
      "stateMutability": "nonpayable",
      "type": "function"
    },
    {
      "inputs": [],
      "name": "getNameBytes32",
      "outputs": [
        {
          "internalType": "bytes32",
          "name": "",
          "type": "bytes32"
        }
      ],
      "stateMutability": "view",
      "type": "function",
      "constant": true
    },
    {
      "inputs": [
        {
          "internalType": "string",
          "name": "_name",
          "type": "string"
        }
      ],
      "name": "setNameString",
      "outputs": [],
      "stateMutability": "nonpayable",
      "type": "function"
    },
    {
      "inputs": [],
      "name": "getNameString",
      "outputs": [
        {
          "internalType": "string",
          "name": "",
          "type": "string"
        }
      ],
      "stateMutability": "view",
      "type": "function",
      "constant": true
    },
    {
      "inputs": [
        {
          "internalType": "address",
          "name": "_user",
          "type": "address"
        }
      ],
      "name": "setUser",
      "outputs": [],
      "stateMutability": "nonpayable",
      "type": "function"
    },
    {
      "inputs": [],
      "name": "getUser",
      "outputs": [
        {
          "internalType": "address",
          "name": "",
          "type": "address"
        }
      ],
      "stateMutability": "view",
      "type": "function",
      "constant": true
    },
    {
      "inputs": [
        {
          "internalType": "uint256",
          "name": "_num",
          "type": "uint256"
        }
      ],
      "name": "setNumber",
      "outputs": [],
      "stateMutability": "nonpayable",
      "type": "function"
    },
    {
      "inputs": [],
      "name": "getNumber",
      "outputs": [
        {
          "internalType": "uint256",
          "name": "",
          "type": "uint256"
        }
      ],
      "stateMutability": "view",
      "type": "function",
      "constant": true
    },
    {
      "inputs": [
        {
          "internalType": "bool",
          "name": "_check",
          "type": "bool"
        }
      ],
      "name": "setCheck",
      "outputs": [],
      "stateMutability": "nonpayable",
      "type": "function"
    },
    {
      "inputs": [],
      "name": "isChecked",
      "outputs": [
        {
          "internalType": "bool",
          "name": "",
          "type": "bool"
        }
      ],
      "stateMutability": "view",
      "type": "function",
      "constant": true
    },
    {
      "inputs": [
        {
          "internalType": "string",
          "name": "source",
          "type": "string"
        }
      ],
      "name": "stringToBytes32",
      "outputs": [
        {
          "internalType": "bytes32",
          "name": "result",
          "type": "bytes32"
        }
      ],
      "stateMutability": "pure",
      "type": "function",
      "constant": true
    }
  ],
  "bytecode": "0x608060405234801561001057600080fd5b507f1acca67956ccf33f0b56b1ec135c0e0f673868b03db9f51c6fc2b04124a368e2426040518082815260200180602001828103825260118152602001807f436f6e74726163742043726561746564210000000000000000000000000000008152506020019250505060405180910390a161084b806100906000396000f3fe608060405234801561001057600080fd5b50600436106100b45760003560e01c8063858ced3511610071578063858ced3514610372578063cfb51928146103b6578063e525772614610485578063f2c9ecd8146104a7578063f64a3cba146104c5578063fcb4a59e146104e3576100b4565b80630cd0563b146100b95780633f773aba1461018c5780633fb5c1cb146101bc57806343c11d91146101ea5780634b18c089146102a5578063832880e714610328575b600080fd5b610172600480360360208110156100cf57600080fd5b81019080803590602001906401000000008111156100ec57600080fd5b8201836020820111156100fe57600080fd5b8035906020019184600183028401116401000000008311171561012057600080fd5b91908080601f016020809104026020016040519081016040528093929190818152602001838380828437600081840152601f19601f820116905080830192505050505050509192919290505050610511565b604051808215151515815260200191505060405180910390f35b6101ba600480360360208110156101a257600080fd5b810190808035151590602001909291905050506105c0565b005b6101e8600480360360208110156101d257600080fd5b81019080803590602001909291905050506105dd565b005b6102a36004803603602081101561020057600080fd5b810190808035906020019064010000000081111561021d57600080fd5b82018360208201111561022f57600080fd5b8035906020019184600183028401116401000000008311171561025157600080fd5b91908080601f016020809104026020016040519081016040528093929190818152602001838380828437600081840152601f19601f8201169050808301925050505050505091929192905050506105e7565b005b6102ad610601565b6040518080602001828103825283818151815260200191508051906020019080838360005b838110156102ed5780820151818401526020810190506102d2565b50505050905090810190601f16801561031a5780820380516001836020036101000a031916815260200191505b509250505060405180910390f35b6103306106a3565b604051808273ffffffffffffffffffffffffffffffffffffffff1673ffffffffffffffffffffffffffffffffffffffff16815260200191505060405180910390f35b6103b46004803603602081101561038857600080fd5b81019080803573ffffffffffffffffffffffffffffffffffffffff1690602001909291905050506106cd565b005b61046f600480360360208110156103cc57600080fd5b81019080803590602001906401000000008111156103e957600080fd5b8201836020820111156103fb57600080fd5b8035906020019184600183028401116401000000008311171561041d57600080fd5b91908080601f016020809104026020016040519081016040528093929190818152602001838380828437600081840152601f19601f820116905080830192505050505050509192919290505050610711565b6040518082815260200191505060405180910390f35b61048d61073c565b604051808215151515815260200191505060405180910390f35b6104af610753565b6040518082815260200191505060405180910390f35b6104cd61075d565b6040518082815260200191505060405180910390f35b61050f600480360360208110156104f957600080fd5b8101908080359060200190929190505050610766565b005b60007f1acca67956ccf33f0b56b1ec135c0e0f673868b03db9f51c6fc2b04124a368e242836040518083815260200180602001828103825283818151815260200191508051906020019080838360005b8381101561057c578082015181840152602081019050610561565b50505050905090810190601f1680156105a95780820380516001836020036101000a031916815260200191505b50935050505060405180910390a160019050919050565b80600460006101000a81548160ff02191690831515021790555050565b8060038190555050565b80600190805190602001906105fd929190610770565b5050565b606060018054600181600116156101000203166002900480601f0160208091040260200160405190810160405280929190818152602001828054600181600116156101000203166002900480156106995780601f1061066e57610100808354040283529160200191610699565b820191906000526020600020905b81548152906001019060200180831161067c57829003601f168201915b5050505050905090565b6000600260009054906101000a900473ffffffffffffffffffffffffffffffffffffffff16905090565b80600260006101000a81548173ffffffffffffffffffffffffffffffffffffffff021916908373ffffffffffffffffffffffffffffffffffffffff16021790555050565b6000606082905060008151141561072e576000801b915050610737565b60208301519150505b919050565b6000600460009054906101000a900460ff16905090565b6000600354905090565b60008054905090565b8060008190555050565b828054600181600116156101000203166002900490600052602060002090601f016020900481019282601f106107b157805160ff19168380011785556107df565b828001600101855582156107df579182015b828111156107de5782518255916020019190600101906107c3565b5b5090506107ec91906107f0565b5090565b61081291905b8082111561080e5760008160009055506001016107f6565b5090565b9056fea26469706673582212203b87bf8ce0ea94fedab33cb0e898a75f8d3bfd18f964cf68cb8339470a406cb364736f6c63430006060033",
  "immutableReferences": {},
  "source": "pragma solidity 0.6.6;\n\n\ncontract PrivateStorage {\n    bytes32 private nameBytes32;\n    string private nameString;\n    address private user;\n    uint256 private num;\n    bool private checked;\n\n    constructor() public {\n        emit Broadcast(now, \"Contract Created!\");\n    }\n\n    function broadcast(string memory _output) public returns (bool) {\n        emit Broadcast(now, _output);\n        return true;\n    }\n\n    function setNameBytes32(bytes32 _name) public {\n        nameBytes32 = _name;\n    }\n\n    function getNameBytes32() public view returns (bytes32) {\n        return nameBytes32;\n    }\n\n    function setNameString(string memory _name) public {\n        nameString = _name;\n    }\n\n    function getNameString() public view returns (string memory) {\n        return nameString;\n    }\n\n    function setUser(address _user) public {\n        user = _user;\n    }\n\n    function getUser() public view returns (address) {\n        return user;\n    }\n\n    function setNumber(uint256 _num) public {\n        num = _num;\n    }\n\n    function getNumber() public view returns (uint256) {\n        return num;\n    }\n\n    function setCheck(bool _check) public {\n        checked = _check;\n    }\n\n    function isChecked() public view returns (bool) {\n        return checked;\n    }\n\n    function stringToBytes32(string memory source)\n        public\n        pure\n        returns (bytes32 result)\n    {\n        bytes memory tempEmptyStringTest = bytes(source);\n        if (tempEmptyStringTest.length == 0) {\n            return 0x0;\n        }\n\n        assembly {\n            result := mload(add(source, 32))\n        }\n    }\n\n    event Broadcast(uint256 timestamp, string output);\n}\n",
  "sourcePath": "/Users/nan-dgt/thesis/git/SubjectToChange/contracts/PrivateStorage.sol",
  "compiler": {
    "name": "solc",
    "version": "0.6.6+commit.6c089d02.Emscripten.clang"
  },
  "schemaVersion": "3.1.0",
  "updatedAt": "2020-04-11T15:03:49.714Z",
  "networkType": "ethereum",
  "devdoc": {
    "methods": {}
  },
  "userdoc": {
    "methods": {}
  }
}